:020000040800F2
:10000000005000200D01000800000000000000006A
:1000100000000000000000000000000000000000E0
:1000200000000000000000000000000000000000D0
:1000300000000000000000000000000000000000C0
:1000400000000000000000000000000000000000B0
:1000500000000000000000000000000000000000A0
:100060000000000000000000000000000000000090
:100070000000000000000000000000000000000080
:100080000000000000000000000000000000000070
:100090000000000000000000000000000000000060
:1000A0000000000000000000000000000000000050
:1000B0000000000000000000000000000000000040
:1000C0000000000000000000000000000000000030
:1000D0000000000000000000000000000000000020
:1000E0000000000000000000000000000000000010
:1000F0000000000000000000000000000000000000
:0C01000000000000000000005FF808F1A3
:10010C00684620F007018D4681B583B000AF164BD1
:10011C003B60164B7B600BE03B681A687B681A608F
:10012C007B6803F104037B603B6803F104033B60D1
:10013C007A680F4B9A42EFD30E4B7B6007E07A68DC
:10014C004FF0000313607B6803F104037B607A6853
:10015C00094B9A42F3D300F049F807F10C07BD465E
:10016C00BDE88140854670479007000800000020DC
:10017C0000000020000000200800002082B0019048
:10018C00019B33B1019B03F1FF330193019B002BC6
:10019C00F8D102B07047C04610B54FF000604FF078
:1001AC00000100F043F910BD10B500F04BF94FF40D
:1001BC00803000F06FF94FF0310000F02FFA00287A
:1001CC00F9D04FF0000000F095F94FF0000000F06E
:1001DC00A5F94FF0000000F097F94FF0010000F086
:1001EC0077F900F07FF90428FBD110BD70B5FFF74B
:1001FC00DBFFFFF7D1FF4FF008004FF0010100F0DB
:10020C00FBF910494FF440730B804FF01003CB7087
:10021C00A3F10D038B700C4800F0A2F80A4D284690
:10022C004FF4807100F000F9084C2046FFF7A6FF50
:10023C0028464FF4007100F0F7F82046FFF79EFFB8
:10024C00ECE7C04602000020000C0140FFFF070055
:10025C0070B50D46161E09DD4FF0000415F9010BA3
:10026C0000F060F804F10104B442F7D1304670BDDF
:10027C0070B588B04FF005004FF0010100F0BCF9EB
:10028C004FF480404FF0010100F0B6F94FF40076C6
:10029C00ADF81C604FF003038DF81E3003F115030D
:1002AC008DF81F301D4C07AD2046294600F058F83C
:1002BC004FF48062ADF81C204FF004038DF81F3012
:1002CC002046294600F04CF84FF416530193A3F541
:1002DC001653ADF80830ADF80A30ADF80C30ADF867
:1002EC000E304FF00C02ADF81020ADF81230ADF816
:1002FC001430ADF81660ADF8183004F540542046B3
:10030C0001A900F0BDF920464FF0010100F09CF965
:10031C004FF00102024B1A7008B070BD000801408A
:10032C000000002070B505460B4B1B780BB9FFF78E
:10033C009FFF0A2D03D14FF00D00FFF7F3FF074C81
:10034C0020464FF0800100F095F90028F7D02046A8
:10035C00E9B200F089F970BD0000002000380140BE
:10036C0030B505460846CB7803F00F0C13F0100F90
:10037C001CBF8B784CEA030C0B783BB32C684FF00A
:10038C00000E4FF0010303FA0EF1038801EA030398
:10039C008B4215D14FEA8E034FF00F0202FA03F293
:1003AC006FEA020202EA04020CFA03F342EA0304C3
:1003BC00C378282B08BF6961C378482B08BF296113
:1003CC000EF1010EBEF1080FDBD12C600388FF2B60
:1003DC0029D96C684FF0000E0EF108024FF00103A2
:1003EC0003FA02F1038801EA03038B4215D14FEAA9
:1003FC008E034FF00F0202FA03F26FEA020202EAD6
:10040C0004020CFA03F342EA0304C378282B08BF56
:10041C006961C378482B08BF29610EF1010EBEF14A
:10042C00080FD9D16C6030BDC160704721F06041BC
:10043C0021F07F0141EA0001014B99607047C046F1
:10044C0000ED00E0114A4FF00000D06010614FF059
:10045C00140353619061D061136843F0010313607E
:10046C0051680B4B01EA03035360136823F0847348
:10047C0023F480331360136823F4802313605368D0
:10048C0023F4FE03536090607047C0460010024096
:10049C000000FFF80D4B1A6822F480321A601A68BB
:1004AC0022F480221A60B0F5803F03D0B0F5802F83
:1004BC000BD105E0054A136843F48033136004E064
:1004CC00024A136843F4A0231360704700100240E3
:1004DC00034B5A6822F0030240EA0200586070474E
:1004EC0000100240024B586800F00C007047C046E8
:1004FC0000100240034B5A6822F0F00240EA02005E
:10050C005860704700100240034B5A6822F4E062B6
:10051C0040EA02005860704700100240034A5368DA
:10052C0023F4605343EAC003536070470010024049
:10053C0010B404462C4B5B6803F00C03042B04BF73
:10054C002A4B036027D0082B03D013BB274B036027
:10055C0021E0254B5A6802F470124FEA924202F1E4
:10056C0002025B6813F4803F02BF214B02FB03F3D2
:10057C00036010D01C4B5B6813F4003F1DBF1C4B79
:10058C0002FB03F30360194B04BF02FB03F303608C
:10059C0001E0164B03601448436803F0F00315495F
:1005AC004FEA1313CB5C226822FA03F262604368B1
:1005BC0003F4E0634FEA1323CB5C22FA03F3A3604A
:1005CC00436803F460534FEAD323CB5C22FA03F263
:1005DC00E260436803F4404301EB93310B7CB2FBC4
:1005EC00F3F2226110BC70470010024000127A0036
:1005FC0000093D007C07000829B1074A936940EACD
:10060C000303936106E004498A696FEA000303EA75
:10061C0002038B617047C046001002404FEA501332
:10062C00012B04BF074B1B6805D0022B07BF054BE2
:10063C001B6A044B5B6A00F01F0023FA00F000F009
:10064C00010070470010024029B183899BB243F42A
:10065C000053838107E0838923F400534FEA03435B
:10066C004FEA1343838170474FEAC1514FEAD1518E
:10067C0081807047038819420CBF0020012070470D
:10068C0010B588B001900C46018A21F47C514FEAD8
:10069C0001414FEA1141E389E28843EA0203228ACD
:1006AC0043EA0203628A43EA0203A28A43EA020390
:1006BC009BB243EA01030382828922F4B05222F0F6
:1006CC000C024FEA02424FEA12422389A18843EA04
:1006DC000103A18943EA01039BB243EA020383812C
:1006EC00838A23F440734FEA03434FEA134362892E
:1006FC0043EA0203838203A8FFF71AFF019A1A4BFD
:10070C009A420CBF069905994FEAC1024FEA411370
:10071C00C2EB03030B4422684FEA8202B3FBF2F3F1
:10072C00124CA4FB03204FEA50104FEA00104FEA82
:10073C0010124FEA82014FEA021211444FEA810271
:10074C001144C1EB03034FEA031303F13203A4FB7F
:10075C0003234FEA531303F00F0343EA00039BB246
:10076C00019A138108B010BD003801401F85EB5170
:10077C00000000000102030401020304060708093B
:04078C000204060855
:040000050800010CE2
:00000001FF
